{
  "_format": "hh-sol-artifact-1",
  "contractName": "Decentragram",
  "sourceName": "contracts/Dinstagram.sol",
  "abi": [
    {
      "anonymous": false,
      "inputs": [
        {
          "indexed": false,
          "internalType": "uint256",
          "name": "id",
          "type": "uint256"
        },
        {
          "indexed": false,
          "internalType": "string",
          "name": "hash",
          "type": "string"
        },
        {
          "indexed": false,
          "internalType": "string",
          "name": "description",
          "type": "string"
        },
        {
          "indexed": false,
          "internalType": "uint256",
          "name": "tipAmount",
          "type": "uint256"
        },
        {
          "indexed": false,
          "internalType": "address payable",
          "name": "author",
          "type": "address"
        }
      ],
      "name": "ImageCreated",
      "type": "event"
    },
    {
      "anonymous": false,
      "inputs": [
        {
          "indexed": false,
          "internalType": "uint256",
          "name": "id",
          "type": "uint256"
        },
        {
          "indexed": false,
          "internalType": "string",
          "name": "hash",
          "type": "string"
        },
        {
          "indexed": false,
          "internalType": "string",
          "name": "description",
          "type": "string"
        },
        {
          "indexed": false,
          "internalType": "uint256",
          "name": "tipAmount",
          "type": "uint256"
        },
        {
          "indexed": false,
          "internalType": "address payable",
          "name": "author",
          "type": "address"
        }
      ],
      "name": "ImageTipped",
      "type": "event"
    },
    {
      "inputs": [
        {
          "internalType": "uint256",
          "name": "_id",
          "type": "uint256"
        }
      ],
      "name": "getImageOwner",
      "outputs": [
        {
          "internalType": "address payable",
          "name": "",
          "type": "address"
        }
      ],
      "stateMutability": "view",
      "type": "function"
    },
    {
      "inputs": [],
      "name": "imageCount",
      "outputs": [
        {
          "internalType": "uint256",
          "name": "",
          "type": "uint256"
        }
      ],
      "stateMutability": "view",
      "type": "function"
    },
    {
      "inputs": [
        {
          "internalType": "uint256",
          "name": "",
          "type": "uint256"
        }
      ],
      "name": "images",
      "outputs": [
        {
          "internalType": "uint256",
          "name": "id",
          "type": "uint256"
        },
        {
          "internalType": "string",
          "name": "hash",
          "type": "string"
        },
        {
          "internalType": "string",
          "name": "description",
          "type": "string"
        },
        {
          "internalType": "uint256",
          "name": "tipAmount",
          "type": "uint256"
        },
        {
          "internalType": "address payable",
          "name": "author",
          "type": "address"
        }
      ],
      "stateMutability": "view",
      "type": "function"
    },
    {
      "inputs": [
        {
          "internalType": "uint256",
          "name": "_id",
          "type": "uint256"
        }
      ],
      "name": "tipImgOwner",
      "outputs": [],
      "stateMutability": "payable",
      "type": "function"
    },
    {
      "inputs": [
        {
          "internalType": "string",
          "name": "_imgHash",
          "type": "string"
        },
        {
          "internalType": "string",
          "name": "_description",
          "type": "string"
        }
      ],
      "name": "uploadImage",
      "outputs": [],
      "stateMutability": "nonpayable",
      "type": "function"
    },
    {
      "inputs": [],
      "name": "viewImages",
      "outputs": [
        {
          "components": [
            {
              "internalType": "uint256",
              "name": "id",
              "type": "uint256"
            },
            {
              "internalType": "string",
              "name": "hash",
              "type": "string"
            },
            {
              "internalType": "string",
              "name": "description",
              "type": "string"
            },
            {
              "internalType": "uint256",
              "name": "tipAmount",
              "type": "uint256"
            },
            {
              "internalType": "address payable",
              "name": "author",
              "type": "address"
            }
          ],
          "internalType": "struct Decentragram.Image[]",
          "name": "",
          "type": "tuple[]"
        }
      ],
      "stateMutability": "view",
      "type": "function"
    }
  ],
  "bytecode": "0x608060405260008055348015601357600080fd5b506116ba806100236000396000f3fe6080604052600436106100555760003560e01c806348ce4c691461005a5780634f5d97791461007657806384856482146100a157806392053b63146100e2578063a91b83141461010d578063a9b1142614610136575b600080fd5b610074600480360381019061006f9190610b78565b610173565b005b34801561008257600080fd5b5061008b610495565b6040516100989190610dc4565b60405180910390f35b3480156100ad57600080fd5b506100c860048036038101906100c39190610b78565b6106f1565b6040516100d9959493929190610e4e565b60405180910390f35b3480156100ee57600080fd5b506100f7610857565b6040516101049190610eaf565b60405180910390f35b34801561011957600080fd5b50610134600480360381019061012f9190610fff565b61085d565b005b34801561014257600080fd5b5061015d60048036038101906101589190610b78565b610a8f565b60405161016a9190611077565b60405180910390f35b60008111801561018557506000548111155b61018e57600080fd5b6000600160008381526020019081526020016000206040518060a0016040529081600082015481526020016001820180546101c8906110c1565b80601f01602080910402602001604051908101604052809291908181526020018280546101f4906110c1565b80156102415780601f1061021657610100808354040283529160200191610241565b820191906000526020600020905b81548152906001019060200180831161022457829003601f168201915b5050505050815260200160028201805461025a906110c1565b80601f0160208091040260200160405190810160405280929190818152602001828054610286906110c1565b80156102d35780601f106102a8576101008083540402835291602001916102d3565b820191906000526020600020905b8154815290600101906020018083116102b657829003601f168201915b50505050508152602001600382015481526020016004820160009054906101000a900473ffffffffffffffffffffffffffffffffffffffff1673ffffffffffffffffffffffffffffffffffffffff1673ffffffffffffffffffffffffffffffffffffffff168152505090506000816080015190508073ffffffffffffffffffffffffffffffffffffffff166108fc349081150290604051600060405180830381858888f1935050505015801561038d573d6000803e3d6000fd5b5034826060015161039e9190611121565b82606001818152505081600160008581526020019081526020016000206000820151816000015560208201518160010190816103da9190611301565b5060408201518160020190816103f09190611301565b506060820151816003015560808201518160040160006101000a81548173ffffffffffffffffffffffffffffffffffffffff021916908373ffffffffffffffffffffffffffffffffffffffff1602179055509050507f1be5317bca8d3f70dc1efe89958be71bff36cdca33fc00a6423e25eb2f1d492f8383602001518460400151856060015185604051610488959493929190610e4e565b60405180910390a1505050565b60606000805467ffffffffffffffff8111156104b4576104b3610ed4565b5b6040519080825280602002602001820160405280156104ed57816020015b6104da610ae9565b8152602001906001900390816104d25790505b5090506000600190505b60005481116106e957600160008281526020019081526020016000206040518060a001604052908160008201548152602001600182018054610538906110c1565b80601f0160208091040260200160405190810160405280929190818152602001828054610564906110c1565b80156105b15780601f10610586576101008083540402835291602001916105b1565b820191906000526020600020905b81548152906001019060200180831161059457829003601f168201915b505050505081526020016002820180546105ca906110c1565b80601f01602080910402602001604051908101604052809291908181526020018280546105f6906110c1565b80156106435780601f1061061857610100808354040283529160200191610643565b820191906000526020600020905b81548152906001019060200180831161062657829003601f168201915b50505050508152602001600382015481526020016004820160009054906101000a900473ffffffffffffffffffffffffffffffffffffffff1673ffffffffffffffffffffffffffffffffffffffff1673ffffffffffffffffffffffffffffffffffffffff1681525050826001836106ba91906113d3565b815181106106cb576106ca611407565b5b602002602001018190525080806106e190611436565b9150506104f7565b508091505090565b600160205280600052604060002060009150905080600001549080600101805461071a906110c1565b80601f0160208091040260200160405190810160405280929190818152602001828054610746906110c1565b80156107935780601f1061076857610100808354040283529160200191610793565b820191906000526020600020905b81548152906001019060200180831161077657829003601f168201915b5050505050908060020180546107a8906110c1565b80601f01602080910402602001604051908101604052809291908181526020018280546107d4906110c1565b80156108215780601f106107f657610100808354040283529160200191610821565b820191906000526020600020905b81548152906001019060200180831161080457829003601f168201915b5050505050908060030154908060040160009054906101000a900473ffffffffffffffffffffffffffffffffffffffff16905085565b60005481565b60008251116108a1576040517f08c379a0000000000000000000000000000000000000000000000000000000008152600401610898906114ca565b60405180910390fd5b60008151116108e5576040517f08c379a00000000000000000000000000000000000000000000000000000000081526004016108dc9061155c565b60405180910390fd5b600073ffffffffffffffffffffffffffffffffffffffff163373ffffffffffffffffffffffffffffffffffffffff1603610954576040517f08c379a000000000000000000000000000000000000000000000000000000000815260040161094b906115c8565b60405180910390fd5b60008081548092919061096690611436565b91905055506040518060a001604052806000548152602001838152602001828152602001600081526020013373ffffffffffffffffffffffffffffffffffffffff1681525060016000805481526020019081526020016000206000820151816000015560208201518160010190816109de9190611301565b5060408201518160020190816109f49190611301565b506060820151816003015560808201518160040160006101000a81548173ffffffffffffffffffffffffffffffffffffffff021916908373ffffffffffffffffffffffffffffffffffffffff1602179055509050507fc1d8dfa99b3f84f95d3f0bc4a768addeb97b83b20aef7f9cb6729e126bafd2f96000548383600033604051610a83959493929190611623565b60405180910390a15050565b60008082118015610aa257506000548211155b610aab57600080fd5b6001600083815260200190815260200160002060040160009054906101000a900473ffffffffffffffffffffffffffffffffffffffff169050919050565b6040518060a0016040528060008152602001606081526020016060815260200160008152602001600073ffffffffffffffffffffffffffffffffffffffff1681525090565b6000604051905090565b600080fd5b600080fd5b6000819050919050565b610b5581610b42565b8114610b6057600080fd5b50565b600081359050610b7281610b4c565b92915050565b600060208284031215610b8e57610b8d610b38565b5b6000610b9c84828501610b63565b91505092915050565b600081519050919050565b600082825260208201905092915050565b6000819050602082019050919050565b610bda81610b42565b82525050565b600081519050919050565b600082825260208201905092915050565b60005b83811015610c1a578082015181840152602081019050610bff565b60008484015250505050565b6000601f19601f8301169050919050565b6000610c4282610be0565b610c4c8185610beb565b9350610c5c818560208601610bfc565b610c6581610c26565b840191505092915050565b600073ffffffffffffffffffffffffffffffffffffffff82169050919050565b6000610c9b82610c70565b9050919050565b610cab81610c90565b82525050565b600060a083016000830151610cc96000860182610bd1565b5060208301518482036020860152610ce18282610c37565b91505060408301518482036040860152610cfb8282610c37565b9150506060830151610d106060860182610bd1565b506080830151610d236080860182610ca2565b508091505092915050565b6000610d3a8383610cb1565b905092915050565b6000602082019050919050565b6000610d5a82610ba5565b610d648185610bb0565b935083602082028501610d7685610bc1565b8060005b85811015610db25784840389528151610d938582610d2e565b9450610d9e83610d42565b925060208a01995050600181019050610d7a565b50829750879550505050505092915050565b60006020820190508181036000830152610dde8184610d4f565b905092915050565b610def81610b42565b82525050565b600082825260208201905092915050565b6000610e1182610be0565b610e1b8185610df5565b9350610e2b818560208601610bfc565b610e3481610c26565b840191505092915050565b610e4881610c90565b82525050565b600060a082019050610e636000830188610de6565b8181036020830152610e758187610e06565b90508181036040830152610e898186610e06565b9050610e986060830185610de6565b610ea56080830184610e3f565b9695505050505050565b6000602082019050610ec46000830184610de6565b92915050565b600080fd5b600080fd5b7f4e487b7100000000000000000000000000000000000000000000000000000000600052604160045260246000fd5b610f0c82610c26565b810181811067ffffffffffffffff82111715610f2b57610f2a610ed4565b5b80604052505050565b6000610f3e610b2e565b9050610f4a8282610f03565b919050565b600067ffffffffffffffff821115610f6a57610f69610ed4565b5b610f7382610c26565b9050602081019050919050565b82818337600083830152505050565b6000610fa2610f9d84610f4f565b610f34565b905082815260208101848484011115610fbe57610fbd610ecf565b5b610fc9848285610f80565b509392505050565b600082601f830112610fe657610fe5610eca565b5b8135610ff6848260208601610f8f565b91505092915050565b6000806040838503121561101657611015610b38565b5b600083013567ffffffffffffffff81111561103457611033610b3d565b5b61104085828601610fd1565b925050602083013567ffffffffffffffff81111561106157611060610b3d565b5b61106d85828601610fd1565b9150509250929050565b600060208201905061108c6000830184610e3f565b92915050565b7f4e487b7100000000000000000000000000000000000000000000000000000000600052602260045260246000fd5b600060028204905060018216806110d957607f821691505b6020821081036110ec576110eb611092565b5b50919050565b7f4e487b7100000000000000000000000000000000000000000000000000000000600052601160045260246000fd5b600061112c82610b42565b915061113783610b42565b925082820190508082111561114f5761114e6110f2565b5b92915050565b60008190508160005260206000209050919050565b60006020601f8301049050919050565b600082821b905092915050565b6000600883026111b77fffffffffffffffffffffffffffffffffffffffffffffffffffffffffffffffff8261117a565b6111c1868361117a565b95508019841693508086168417925050509392505050565b6000819050919050565b60006111fe6111f96111f484610b42565b6111d9565b610b42565b9050919050565b6000819050919050565b611218836111e3565b61122c61122482611205565b848454611187565b825550505050565b600090565b611241611234565b61124c81848461120f565b505050565b5b8181101561127057611265600082611239565b600181019050611252565b5050565b601f8211156112b55761128681611155565b61128f8461116a565b8101602085101561129e578190505b6112b26112aa8561116a565b830182611251565b50505b505050565b600082821c905092915050565b60006112d8600019846008026112ba565b1980831691505092915050565b60006112f183836112c7565b9150826002028217905092915050565b61130a82610be0565b67ffffffffffffffff81111561132357611322610ed4565b5b61132d82546110c1565b611338828285611274565b600060209050601f83116001811461136b5760008415611359578287015190505b61136385826112e5565b8655506113cb565b601f19841661137986611155565b60005b828110156113a15784890151825560018201915060208501945060208101905061137c565b868310156113be57848901516113ba601f8916826112c7565b8355505b6001600288020188555050505b505050505050565b60006113de82610b42565b91506113e983610b42565b9250828203905081811115611401576114006110f2565b5b92915050565b7f4e487b7100000000000000000000000000000000000000000000000000000000600052603260045260246000fd5b600061144182610b42565b91507fffffffffffffffffffffffffffffffffffffffffffffffffffffffffffffffff8203611473576114726110f2565b5b600182019050919050565b7f496d61676520686173682063616e6e6f7420626520656d707479000000000000600082015250565b60006114b4601a83610df5565b91506114bf8261147e565b602082019050919050565b600060208201905081810360008301526114e3816114a7565b9050919050565b7f496d616765206465736372697074696f6e2063616e6e6f7420626520656d707460008201527f7900000000000000000000000000000000000000000000000000000000000000602082015250565b6000611546602183610df5565b9150611551826114ea565b604082019050919050565b6000602082019050818103600083015261157581611539565b9050919050565b7f53656e64657220616464726573732063616e6e6f74206265207a65726f000000600082015250565b60006115b2601d83610df5565b91506115bd8261157c565b602082019050919050565b600060208201905081810360008301526115e1816115a5565b9050919050565b6000819050919050565b600061160d611608611603846115e8565b6111d9565b610b42565b9050919050565b61161d816115f2565b82525050565b600060a0820190506116386000830188610de6565b818103602083015261164a8187610e06565b9050818103604083015261165e8186610e06565b905061166d6060830185611614565b61167a6080830184610e3f565b969550505050505056fea264697066735822122091d48070bca7e5bc61acd9ec2021f53a725144d5b368ac716afdca589262ce8a64736f6c634300081c0033",
  "linkReferences": {},
  "deployedLinkReferences": {}
}